:020000040000fa
:080000000002040000000000f2
:020000040000fa
:040008003a030000b7
:020000040000fa
:04000c007c03000071
:020000040000fa
:04001000bc0300002d
:020000040000fa
:040014005a0300008b
:020000040000fa
:040018009c03000045
:020000040000fa
:04001c006404000078
:020000040000fa
:04002000dc030000fd
:020000040000fa
:040024006404000070
:020000040000fa
:04002800640400006c
:020000040000fa
:04002c0002030000cb
:020000040000fa
:040030006404000064
:020000040000fa
:040034006404000060
:020000040000fa
:04003800640400005c
:020000040000fa
:04003c006404000058
:020000040000fa
:040040006404000054
:020000040000fa
:04004400360400007e
:020000040000fa
:04004800640400004c
:020000040000fa
:04004c006404000048
:020000040000fa
:040050006404000044
:020000040000fa
:040054006404000040
:020000040000fa
:04005800640400003c
:020000040000fa
:04005c006404000038
:020000040000fa
:040060006404000034
:020000040000fa
:040064006404000030
:020000040000fa
:04006800640400002c
:020000040000fa
:04006c006404000028
:020000040000fa
:040070006404000024
:020000040000fa
:040074006404000020
:020000040000fa
:04007800640400001c
:020000040000fa
:04007c006404000018
:020000040000fa
:040080006404000014
:020000040000fa
:040084006404000010
:020000040000fa
:04008800640400000c
:020000040000fa
:04008c006404000008
:020000040000fa
:040090006404000004
:020000040000fa
:040094006404000000
:020000040000fa
:0400980064040000fc
:020000040000fa
:04009c0064040000f8
:020000040000fa
:0400a00064040000f4
:020000040000fa
:0400a40064040000f0
:020000040000fa
:0400a80064040000ec
:020000040000fa
:0400ac0064040000e8
:020000040000fa
:0400b00064040000e4
:020000040000fa
:0400b40064040000e0
:020000040000fa
:0400b80064040000dc
:020000040000fa
:0400bc0064040000d8
:020000040000fa
:0400c00064040000d4
:020000040000fa
:0400c40064040000d0
:020000040000fa
:0400c80064040000cc
:020000040000fa
:0400cc0064040000c8
:020000040000fa
:0400d00064040000c4
:020000040000fa
:0400d40064040000c0
:020000040000fa
:0400d80064040000bc
:020000040000fa
:0400dc0064040000b8
:020000040000fa
:0400e00064040000b4
:020000040000fa
:0400e40064040000b0
:020000040000fa
:0400e80064040000ac
:020000040000fa
:0400ec0064040000a8
:020000040000fa
:0400f00064040000a4
:020000040000fa
:0400f40064040000a0
:020000040000fa
:0400f800640400009c
:020000040000fa
:0400fc006404000098
:020000040000fa
:040100006404000093
:020000040000fa
:04010400640400008f
:020000040000fa
:04010800640400008b
:020000040000fa
:04010c006404000087
:020000040000fa
:040110006404000083
:020000040000fa
:04011400640400007f
:020000040000fa
:04011800640400007b
:020000040000fa
:04011c006404000077
:020000040000fa
:040120006404000073
:020000040000fa
:04012400640400006f
:020000040000fa
:04012800640400006b
:020000040000fa
:04012c006404000067
:020000040000fa
:040130006404000063
:020000040000fa
:04013400640400005f
:020000040000fa
:04013800640400005b
:020000040000fa
:04013c006404000057
:020000040000fa
:040140006404000053
:020000040000fa
:04014400640400004f
:020000040000fa
:04014800640400004b
:020000040000fa
:04014c006404000047
:020000040000fa
:040150006404000043
:020000040000fa
:04015400640400003f
:020000040000fa
:04015800640400003b
:020000040000fa
:04015c006404000037
:020000040000fa
:040160006404000033
:020000040000fa
:04016400640400002f
:020000040000fa
:04016800640400002b
:020000040000fa
:04016c006404000027
:020000040000fa
:040170006404000023
:020000040000fa
:04017400640400001f
:020000040000fa
:04017800640400001b
:020000040000fa
:04017c006404000017
:020000040000fa
:040180006404000013
:020000040000fa
:04018400640400000f
:020000040000fa
:04018800640400000b
:020000040000fa
:04018c006404000007
:020000040000fa
:040190006404000003
:020000040000fa
:0401940064040000ff
:020000040000fa
:0401980064040000fb
:020000040000fa
:04019c0064040000f7
:020000040000fa
:0401a00064040000f3
:020000040000fa
:0401a40064040000ef
:020000040000fa
:0401a80064040000eb
:020000040000fa
:0401ac0064040000e7
:020000040000fa
:0401b00064040000e3
:020000040000fa
:0401b40064040000df
:020000040000fa
:0401b80064040000db
:020000040000fa
:0401bc0064040000d7
:020000040000fa
:0401c00064040000d3
:020000040000fa
:0401c40064040000cf
:020000040000fa
:0401c80064040000cb
:020000040000fa
:0401cc0064040000c7
:020000040000fa
:0401d00064040000c3
:020000040000fa
:0401d40064040000bf
:020000040000fa
:0401d80064040000bb
:020000040000fa
:0401dc0064040000b7
:020000040000fa
:0401e00064040000b3
:020000040000fa
:0401e40064040000af
:020000040000fa
:0401e80064040000ab
:020000040000fa
:0401ec0064040000a7
:020000040000fa
:0401f00064040000a3
:020000040000fa
:0401f400640400009f
:020000040000fa
:0401f800640400009b
:020000040000fa
:0401fc006404000097
:020000040000fa
:040200006404000092
:020000040000fa
:04020400640400008e
:020000040000fa
:04020800640400008a
:020000040000fa
:04020c006404000086
:020000040000fa
:040210006404000082
:020000040000fa
:04021400640400007e
:020000040000fa
:04021800640400007a
:020000040000fa
:04021c006404000076
:020000040000fa
:040220006404000072
:020000040000fa
:04022400640400006e
:020000040000fa
:04022800640400006a
:020000040000fa
:04022c006404000066
:020000040000fa
:040230006404000062
:020000040000fa
:04023400640400005e
:020000040000fa
:04023800640400005a
:020000040000fa
:04023c006404000056
:020000040000fa
:040240006404000052
:020000040000fa
:04024400640400004e
:020000040000fa
:04024800640400004a
:020000040000fa
:04024c006404000046
:020000040000fa
:040250006404000042
:020000040000fa
:04025400640400003e
:020000040000fa
:04025800640400003a
:020000040000fa
:04025c006404000036
:020000040000fa
:040260006404000032
:020000040000fa
:04026400640400002e
:020000040000fa
:04026800640400002a
:020000040000fa
:04026c006404000026
:020000040000fa
:040270006404000022
:020000040000fa
:04027400640400001e
:020000040000fa
:04027800640400001a
:020000040000fa
:04027c006404000016
:020000040000fa
:040280006404000012
:020000040000fa
:04028400640400000e
:020000040000fa
:04028800640400000a
:020000040000fa
:04028c006404000006
:020000040000fa
:040290006404000002
:020000040000fa
:0402940064040000fe
:020000040000fa
:0402980064040000fa
:020000040000fa
:04029c0064040000f6
:020000040000fa
:0402a00064040000f2
:020000040000fa
:0402a40064040000ee
:020000040000fa
:0402a80064040000ea
:020000040000fa
:0402ac0064040000e6
:020000040000fa
:0402b00064040000e2
:020000040000fa
:0402b40064040000de
:020000040000fa
:0402b80064040000da
:020000040000fa
:0402bc0064040000d6
:020000040000fa
:0402c00064040000d2
:020000040000fa
:0402c40064040000ce
:020000040000fa
:0402c80064040000ca
:020000040000fa
:0402cc0064040000c6
:020000040000fa
:0402d00064040000c2
:020000040000fa
:0402d40064040000be
:020000040000fa
:0402d80064040000ba
:020000040000fa
:0402dc0064040000b6
:020000040000fa
:0402e00064040000b2
:020000040000fa
:0402e40064040000ae
:020000040000fa
:0402e80064040000aa
:020000040000fa
:0402ec0064040000a6
:020000040000fa
:0402f00064040000a2
:020000040000fa
:0402f400640400009e
:020000040000fa
:0402f800640400009a
:020000040000fa
:0402fc006404000096
:020000040000fa
:040300006404000091
:020000040000fa
:04030400640400008d
:020000040000fa
:040308006404000089
:020000040000fa
:04030c006404000085
:020000040000fa
:040310006404000081
:020000040000fa
:04031400640400007d
:020000040000fa
:040318006404000079
:020000040000fa
:04031c006404000075
:020000040000fa
:040320006404000071
:020000040000fa
:04032400640400006d
:020000040000fa
:040328006404000069
:020000040000fa
:04032c006404000065
:020000040000fa
:100400002f4a21000eff26000e0188000000000088
:10041000000020000000e000020032000001200087
:100420002002880014000700290107000000e000f6
:1004300003003a0020aa2200010020000200370039
:100440000000200001002000810f70000100320038
:100450000f000700000020000000e0000200320052
:10046000000002000000000052290200000000000d
:100470000040da000000fe00800420000000e000e0
:1004800002003200002020009001880000000600d9
:10049000a1028800800478000000eb001f003700f4
:1004a000e284440054a0b4009905ba00e2844400f8
:1004b00054a0b4009906ba00e284440054a0b400e9
:1004c0000006eb00476fde00fd07b200ae018800ba
:1004d000636ce10003003a000ad801000000eb0061
:1004e0000e003700606ce10008003a00004deb00a0
:1004f0000a05e800020039003420ec000af0a000f0
:100500008b05e900f9ff3e00040037006168e10057
:10051000010032000086eb000b00070019c7ba008b
:100520001905ba000e04e00003003a000a00e000da
:10053000dbff3a0000000600fe07b200ae028800b2
:100540008a047800f5ff37000cd0a300e20f4d00bd
:100550001c00390089027800354dba000a05e80010
:10056000020039003420ec000af0a0008b05e900fd
:100570000f003200254dba000a05e80002003900dc
:100580003420ec000af0a0008b05e90008003200de
:100590000c00e0000600320015cdba000a05e800a4
:1005a000020039003420ec000af0a0008b05e900bd
:1005b0008984e80054a0b4000b00e000e2ff3a0098
:1005c000000006009902ba00055d78008b05e9007d
:1005d000f7ff3200c82ade00055d78008b05e900d0
:1005e000f3ff32000c00e000f1ff320019ddba0029
:1005f000eeff3700520b040000000000f428040056
:10060000000000003600f800809fbe00829fbe0000
:10061000849fbe00869fbe003200f8003400f800c0
:1006200010002000a0018800002020009001880018
:100630000000fa000028a900b00207000000e00056
:10064000030032006a2902000000000000000000e0
:100650000080fa003400f9003200f9004f03be00b8
:100660004f02be004f01be004f00be003600f90031
:10067000004006003600f800809fbe00829fbe004a
:10068000849fbe00869fbe000000fa00c028a9001b
:100690000000eb00fe1307000080fa004f03be00cd
:1006a0004f02be004f01be004f00be003600f900f1
:1006b000004006003600f800809fbe00829fbe000a
:1006c000849fbe00869fbe000000fa00f51307005d
:1006d000c048a90010002000ed1307000080fa00b8
:1006e0004f03be004f02be004f01be004f00be00d0
:1006f0003600f900004006003600f800809fbe007a
:10070000829fbe00849fbe00869fbe000000fa004c
:10071000c068a90020002000dd1307000080fa0057
:100720004f03be004f02be004f01be004f00be008f
:100730003600f900004006003600f800809fbe0039
:10074000829fbe00849fbe00869fbe000000fa000c
:10075000c088a90030002000cd1307000080fa00f7
:100760004f03be004f02be004f01be004f00be004f
:100770003600f900004006003600f800809fbe00f9
:10078000829fbe00849fbe00869fbe000000fa00cc
:10079000c608a90070002000bd1307000080fa0001
:1007a0004f03be004f02be004f01be004f00be000f
:1007b0003600f900004006003600f800809fbe00b9
:1007c000829fbe00849fbe00869fbe000000fa008c
:1007d0002146800000102000008060000000e00042
:1007e00003003200c508a900c0002000a8130700bc
:1007f0002146800000002800008060000000e0002a
:1008000003003200c5e8a90080002000a013070003
:100810002146800000022000008060000000e0000f
:1008200003003200c4a8a90090002000981307001c
:1008300020468000700060000000e00003003200ed
:10084000c488a900a0002000911307002046800062
:10085000610060000000e00003003200c408a9004d
:10086000b00020008a130700ffff37003600f800b1
:10087000809fbe00829fbe00849fbe00869fbe00f8
:100880000000fa00014080000008200000806000a5
:100890000000e00005003200004a210011c0b30052
:1008a000014878007012070000e8a9000080fa00f3
:1008b0004f03be004f02be004f01be004f00be00fe
:1008c0003600f900004006000040da000000fe009b
:1008d000000005008001780002003700b15978005f
:1008e0000201e9000200e000fcff3a0000000600ff
:1008f0008001780002003700815978000201e90088
:0c0900000200e000fcff3a0000000600ce
:020000040000fa
:10090c001111000022220000333300004444000087
:10091c005555000066660000777700008888000057
:10092c0099990000aaaa0000bbbb0000cccc000027
:10093c00dddd0000eeee0000cecd0000acab000023
:10094c00020200000303000004040000050500007f
:10095c000606000007070000080800000a0900004e
:10096c001010000010110000121200005461000061
:10097c00736b00005f3100003030000075730000b5
:10098c0000000000494400004c450000000000003d
:020000040000fa
:10099c001000fa00200798003107980042079800d1
:1009ac00530798006407980075079800c00320004f
:1009bc0085120700000f78001e0078000000e00090
:1009cc000e0032004e009000000040007e12070026
:1009dc00800078001e007800410898001e00780006
:1009ec00400890000000e00004003a001e0078006f
:1009fc00a01207000000eb00000f78001e0078002a
:100a0c000000e000120032004e0090008000eb006d
:100a1c000001eb00821f78009e0378007e0390009b
:100a2c00ee0290005e0290000001be00be0090003d
:100a3c002e0090000b0007008f87e9001e00780045
:100a4c006d0007001000200010079800020037000e
:100a5c000080eb00100798001e0090000080fa0048
:100a6c00000006001400fa002007980031079800d7
:100a7c004207980053079800640798007507980080
:100a8c00060f9800170f98001e089000c0089000e1
:100a9c00110798001e089000c00890004e019000ad
:100aac00f0ff270000004100000040008080400063
:100abc001e089000511098003e0090000000e000cd
:100acc00190032000000eb00000f78000d00370019
:100adc003e0090001e004000904078001e089000e0
:100aec001e0040007a004000014878003e00900053
:100afc001e004000104078000004e00005003200a9
:100b0c001e0fe8001e007800ef0f5000f0ff3600bb
:100b1c0001003700000000001e0890008040eb0030
:100b2c0011689800030037001e0890008040eb000d
:100b3c00215898007e009000e40f5000020036000f
:100b4c0040002000700798001e089000fe009000e6
:100b5c00310898001e0890000080e800e10f0700a3
:100b6c001e0890006c004000de0f07001e0890006d
:100b7c009e089000410098007e009000e500100057
:100b8c001e089000610098001e0890009e089000be
:100b9c00110898001e089000c002b000c20020008e
:100bac008000eb004fff07001e0890008003b00090
:100bbc00320020008000eb004aff07006e0190001d
:100bcc00ae0090001e009000e90e07008000780037
:100bdc001e089000010878000e0890000000e0004c
:100bec00030032000e0890009e0890000108780067
:100bfc000080fa00000006000200fa00000f7800e6
:100c0c00650f0700308080000000e800308088000d
:100c1c00008080000000e00007003a009e00780091
:100c2c000180880030808000e10f50000d003a00f8
:100c3c009d0207000b003700608080000000e00080
:100c4c0008003a0000808000b00890001e00780078
:100c5c0030089000808f500002003e009e0078000b
:100c6c0001808800a08080000000e800a08088003f
:100c7c001e007800b008900050808000808f5000db
:100c8c00030036001e007800300890005080880069
:100c9c009e80e8001e00780030089000ea01b90040
:100cac00e042210000004100950f0700470f0700ac
:100cbc00608080000000e0000900320000808000ad
:100ccc00b00890001e00780030089000808f500013
:100cdc00030031006a29020000000000000000003f
:100cec000080fa00000006000c00fa004007980093
:100cfc00510798000000eb00000f7800740007000b
:100d0c0041808000110798004e0090009000780000
:100d1c005e00900000804000200798004e0090007c
:100d2c00900078001e009000808f50000c00360060
:100d3c004e009000900078002e009000808f5000a4
:100d4c0012003600ae0090001e009000808f500004
:100d5c000e00360010002000000f78000b0037004a
:100d6c004e009000900078002e009000808f500074
:100d7c0004003e00ae0090001e009000808f5000da
:100d8c000200360010002000000f78004e0090008a
:100d9c00ae009000010878001e0078000000e00012
:100dac0005003200ae0090001e0090000080500044
:100dbc008000eb00120507004b000700300798007d
:100dcc003e0090000000e00003003a006a29020097
:100ddc0000000000000000000080fa000000060087
:100dec000400fa00100798000000eb00000f7800d8
:100dfc001e0090000000e0000600320034000700e6
:100e0c008000eb001e009000fd0407003600070078
:100e1c00000f78001e0078000000e00003003a008c
:100e2c006a29020000000000000000000080fa00a7
:100e3c00000006000200fa00850121000002eb0010
:100e4c008001eb0002042000814c280020b520001a
:100e5c00cffe0700000f78001e007800e10f500055
:100e6c000d003a0011028000f0f12f0000806000ac
:100e7c000070a000100288000000000000000000bc
:100e8c000080eb00b080880010002000608088009b
:100e9c000830ef00830e07000080fa000000060007
:100eac000000fa0011028000f0f12f0000806000b9
:100ebc000070a0001002880000000000000000007c
:100ecc000c30ef009a0e07000080fa0000000600bc
:100edc000000fa00d08080000000e800d08088007c
:100eec000080fa00000006000600fa000000eb008b
:100efc00000f78000000eb0010079800a60e07000a
:100f0c00d08080000000e900d0808800d080800074
:100f1c000000e00043003a00308080000000e00058
:100f2c00400032001f003700d0a38000300090003a
:100f3c00000f78009e0078006c804000400f070086
:100f4c001e80e8003e0f07001e007800b0089000dd
:100f5c0050808000808f5000030036001e00780007
:100f6c0030089000508088009e80e8001e007800b9
:100f7c0030089000ea01b900e04221000000410075
:100f8c00df0e07001e007800b00890000080800083
:100f9c0030089000808f50000200390010002000b3
:100fac0080808800a0a380000000e000deff3a00f3
:100fbc001e0078000000e00001003200d70107009d
:100fcc0071808000210798002e0090000000e00046
:100fdc000c003200460007000000e0000200320066
:100fec0010002000808088002e0090000000e90096
:100ffc00200798002e0090000000e000f5ff3a005a
:10100c000e30ef00808080000000e0000500320010
:10101c0010002000100798006a2902000000000050
:10102c0000000000690e07001e0090000080fa000e
:10103c00000006000200fa00570e070041808000f5
:10104c00010f7800610e07001e0078000080fa0086
:10105c00000006000400fa006a0e0700000f78007a
:10106c0041808000110798001e007800740e070064
:10107c001e0090000080fa00000006000000fa003c
:10108c00308080000080fa00000006000400fa00a6
:10109c00100798001e0090000000e00002003a00cb
:1010ac0000808000010037001e009000000f7800c7
:1010bc009e0078007a8040000080fa000000060054
:1010cc000400fa001007980081ff0700718080006f
:1010dc001e009000008040007080880082ff070096
:1010ec00000f78001e0078000080fa000000060057
:1010fc000a00fa000000eb00000f7800d08080009e
:10110c000000e00061003a00408080000000e80030
:10111c00100798009e009000418088001e009000ef
:10112c000000e0000a003a001180800021079800be
:10113c002080800010808800ae0090002180880004
:10114c00908080000000e800908088007301070008
:10115c00b08080009e009000808f50003a003900d3
:10116c0001003700000000001080800010007800a3
:10117c000000e00003003a000080eb00b080880023
:10118c00310037001080800030009000300090005b
:10119c00300798003e0090009000900041079800a6
:1011ac009e0090004e009000808f50000300310094
:1011bc00ce009000b1808800230037003e009000e4
:1011cc000080e8009e0e07003e0090002008900072
:1011dc000000e000030032003e0090006c00400074
:1011ec00970e07003e009000b008900050808000e1
:1011fc00808f5000030036003e00900030089000b5
:10120c00508088003e0090008080e8003e009000f6
:10121c0030089000ea01b900e042210000004100d2
:10122c00370e07003e009000b00890000080800050
:10123c0030089000808f5000caff39001000200049
:10124c00000f7800c8ff3700008080003008900045
:10125c00ea00b90080007800e042210000804000e4
:10126c0010007800e10f5000020036001000200042
:10127c00000f7800808080000000e0000600320043
:10128c0010002000000f78000300370070808000f1
:10129c000000e800708088001e0078000080fa00d2
:1012ac00000006000400fa00d08080000000e0007e
:1012bc0003003200100020008080880029003700d5
:1012cc001030ef0051808000010f780001003700d2
:1012dc001e0fe9001e007800ea00b90080007800bb
:1012ec00e042210000804000100078000000e00087
:1012fc00f7ff32001e007800ea00b9008000780089
:10130c00e042210000804000100798001e00900071
:10131c0010009000900090001e00900011009800aa
:10132c001e009000900090001e0090006400400091
:10133c00808f500005003a001e00900010009000b5
:10134c00900090001e009000110098001e0090006c
:10135c001000900030009000008088009e00780003
:10136c00518088000080fa00000006000400fa009a
:10137c00000f780011079800008080006c0040007e
:10138c00800078001e007800fb0d07001100200083
:10139c001e0090009a0307000080fa00000006006f
:1013ac000600fa00000f7800110798002207980039
:1013bc00008080009e00900001f0a0006100980069
:1013cc00008080006c004000800078001e007800d7
:1013dc00cb0d0700110020002e00900088030700a1
:1013ec000080fa00000006000600fa0020079800b2
:1013fc002e009000300090003000900010079800f4
:10140c001e0090006c0040000d0e0700d080800084
:10141c000000e00014003a001e0090000080e8007c
:10142c00070e07001e009000b0089000508080004e
:10143c00808f5000030036001e0090003008900092
:10144c00508088001e0090008080e8001e009000f4
:10145c0030089000ea01b900e04221000000410090
:10146c00a70d0700050037001e0090006c0040001f
:10147c008000780040472100a10d07001e0090005d
:10148c00b00890000080800030089000808f5000e1
:10149c000500360010002000000f7800100020001e
:1014ac0080808800020037000000eb00000f7800fd
:1014bc001e0078000080fa00000006000600fa000a
:1014cc0010079800210798002e00900080007800eb
:1014dc0001f0a0001e009000010878001e00900092
:1014ec0030009000000f78001e009000d40d070013
:1014fc001e80e800d20d07001e007800b008900096
:10150c0050808000808f5000030036001e00780051
:10151c0030089000508088009e80e8001e00780003
:10152c0030089000ea01b900e042210000004100bf
:10153c00730d07001e007800b0089000008080003a
:10154c0030089000808f5000020036001000200000
:10155c00808088000080fa00000006000200fa007b
:10156c00000f78000c0d0700918080001e007800a1
:10157c0001087800418080001e007800110098005e
:10158c00120d07000080fa00000006000200fa00ad
:10159c00000f7800918080001e0078000108780010
:1015ac00418080001e007800110098000080fa0035
:1015bc00000006000a00fa00300798004107980066
:1015cc00f50c070041808000110798003e00900048
:1015dc00100090009e0090000080500020079800a2
:1015ec003e0090009000780090808000808f50002a
:1015fc000b0032003e009000900090001e00900006
:10160c00808f500006003e0010002000000f780074
:10161c004e0090008000eb000108780015003700a8
:10162c004e009000900078002e009000808f5000ab
:10163c000b0036004e009000900078002e009000b9
:10164c00808050004e009000010878003e00900011
:10165c00ceff07000000eb00000f780005003700fc
:10166c004e0090008000eb00010878001000200074
:10167c00000f7800d50c07001e0078000080fa00df
:10168c00000006000000fa00100020008080880096
:10169c000080fa00000006000200fa00000f78003b
:1016ac001b000700feff37000200fa000000eb00f1
:1016bc00000f7800070037001e007800ea00b90020
:1016cc0080007800e042210000804000ec0c070014
:1016dc001e0fe8001e007800e40f5000f6ff3600e5
:1016ec0000462100e60c0700a0462100e40c070090
:1016fc0040472100e20c07000046210010808800c2
:10170c00a0462100208088000080fa00000006001e
:10171c000000fa000080fa00000006000000fa0049
:10172c0010808000100078000000e00003003a00f8
:10173c000080eb00b080880004003700108080002f
:10174c003000900010007800b08088000080fa0013
:10175c00000006000200fa0001808000010f7800f2
:10176c001e0078000080fa00000006000200fa005b
:10177c0000808000e0009000010f78000080800065
:10178c0001808000b1089000e58010006100980095
:10179c001e0078000080fa00000006000a00fa0023
:1017ac002007980031079800420798007a0c070030
:1017bc00018080002e0090006b0040004200dd0094
:1017cc00008040001000be00e00f5000e08f580079
:1017dc000f003a00018080002e0090000080400035
:1017ec008003b00011c0b300014878004e00900097
:1017fc000000e00006003200110020004e009000b6
:10180c007f0207006a2902000000000000000000af
:10181c006e0c0700600c0700018080002e00900009
:10182c006b0040004200dd0000804000301f78005b
:10183c00201778001e00be00e00f5000e08f58000b
:10184c00150032003e0090000000e000080032005d
:10185c00018080002e0090006b0040004200dd00f3
:10186c00008140006000b8000089be000a0037000b
:10187c00038080000082eb008082eb003e0042007f
:10188c00ae804a002e0190006b0141004211dd0038
:10189c00028141000089be00018080002e00900072
:1018ac00008040008003b0008040eb0001487800cd
:1018bc00460c07001e00be000080fa000000060067
:1018cc001000fa00100798002207980033079800c0
:1018dc004407980055079800610798007607980010
:1018ec002d0c0700018080001e0090008003b000ca
:1018fc000080400010407800e24f50002b00320076
:10190c00048080001e0090006b0040004200dd004f
:10191c00000042001001be002e009000be0090009e
:10192c000080ea008180ea008202780003017800de
:10193c008001780001007800838262000000610061
:10194c008000eb00c000dd00000020000001be00a4
:10195c006128b80000017100818171001e009000a7
:10196c006b0040004200dd00000042000288be0017
:10197c00018080001e009000008040008003b000b9
:10198c0011c0b300014878007e0090000000e00018
:10199c0006003200110020007e00900018020700a3
:1019ac006a2902000000000000000000070c07007c
:1019bc00f90b07006e0090000000e00008003200f8
:1019cc00018080001e0090006b0040004200dd0092
:1019dc00008040001000be006e0190000089be0027
:1019ec00018080001e0090008003b0000080400049
:1019fc0010407800e24f5000030032000000eb0072
:101a0c00000f78001e003700048080001e0090003c
:101a1c006b0040004200dd00000042001001be00df
:101a2c004e009000de0090000080ea008180ea0009
:101a3c0082027800030178008001780001007800b0
:101a4c0083826200000061008000eb00c000dd00ba
:101a5c00000020000001be006128b80000017100e8
:101a6c00818171001e0090006b0040004200dd007f
:101a7c00000042000288be0010002000000f780019
:101a8c00018080001e009000008040008003b000a8
:101a9c008040eb0001487800cc0b07001e0078005a
:101aac000080fa00000006001200fa0030079800cf
:101abc004107980052079800630798007407980034
:101acc00050f980010002000000f7800be00900059
:101adc0011079800b00b07000e0890000000e00002
:101aec00080032009e0090004e0090006b004000f9
:101afc004200dd00008040001000be000e09900086
:101b0c000089be009e0090004e0090008003b00043
:101b1c000080400010417800424798009e009000e1
:101b2c004e009000008040008003b00021c0b30044
:101b3c00014878007e009000e20f50001d0032003a
:101b4c00e20f500005003e000000e00040003200b3
:101b5c00e10f5000060032003e003700e30f50004a
:101b6c0023003200e40f50002a0032003900370005
:101b7c009e0090004e0090006b0040004200dd0083
:101b8c00008040001001be005e009000ee0090004e
:101b9c0000007100818071009e0190004e01900048
:101bac006b0141004211dd00028141000089be0041
:101bbc00280037009e0090004e0090006b00400003
:101bcc004200dd00008040001000be0061004000bb
:101bdc00e08048009e0190004e0190006b01410096
:101bec004211dd00028141000089be00190037005e
:101bfc009e0090004e0090006b0040004200dd0003
:101c0c00008040005e019000ee0190000288be0052
:101c1c00100037004e409000e24f50000900320097
:101c2c009e0090004e0090006b0040004200dd00d2
:101c3c00008040005e019000ee0190000288be0022
:101c4c00040037000000eb00000f780001003700a3
:101c5c00000000004e409000e14f50001c003a0084
:101c6c001e0090000080e800f50b07001e0090009d
:101c7c00b008900050808000808f50000300360028
:101c8c001e00900030089000508088001e009000cc
:101c9c008080e8001e00900030089000ea01b90036
:101cac00e042210000004100950b07001e0090004f
:101cbc00b00890000080800030089000808f5000a9
:101ccc00030036006a29020000000000000000003a
:101cdc003e0b07001e0078000080fa000000060092
:101cec001600fa0040079800510798006207980008
:101cfc0073079800040f9800150f9800260f980092
:101d0c0010002000000f7800ce0090001107980002
:101d1c003c0b0700200798001e0890000000e00014
:101d2c00080032009e0090005e0090006b004000a6
:101d3c004200dd00008040001000be001e09900033
:101d4c000089be009e0090005e0090008003b000f1
:101d5c000080400010417800624798009e0090007f
:101d6c005e009000008040008003b00021c0b300f2
:101d7c00014878000e089000e20f50001d00320060
:101d8c00e20f500005003e000000e0004000320071
:101d9c00e10f5000060032003e003700e30f500008
:101dac0023003200e40f50002a00320039003700c3
:101dbc009e0090005e0090006b0040004200dd0031
:101dcc00008040001001be006e009000fe009000ec
:101ddc0000007100818071009e0190005e019000f6
:101dec006b0141004211dd00028141000089be00ff
:101dfc00280037009e0090005e0090006b004000b1
:101e0c004200dd00008040001000be006100400078
:101e1c00e08048009e0190005e0190006b01410043
:101e2c004211dd00028141000089be00190037001b
:101e3c009e0090005e0090006b0040004200dd00b0
:101e4c00008040006e019000fe0190000288be00f0
:101e5c00100037006e409000e24f50000900320035
:101e6c009e0090005e0090006b0040004200dd0080
:101e7c00008040006e019000fe0190000288be00c0
:101e8c00040037000000eb00000f78000100370061
:101e9c00000000006e409000e14f50002a003a0014
:101eac00d08080000000e00014003a001e0090007a
:101ebc000080e800620b07001e009000b008900044
:101ecc0050808000808f5000030036001e00900070
:101edc0030089000508088001e0090008080e80040
:101eec001e00900030089000ea01b900e042210089
:101efc0000004100020b0700050037001e00900097
:101f0c006c0040008000780040472100fc0a07006c
:101f1c001e009000b00890000080800030089000f7
:101f2c00808f5000080036002e0890000000e00062
:101f3c00030032002e0890001100200001087800e8
:101f4c0010002000808088002e009000bc0a070042
:101f5c001e0078000080fa00000006000c00fa0059
:101f6c00300798004107980052079800be00900077
:101f7c00010f7800a30a0700100798009e00780054
:101f8c004e0090008003b00000804000904078002c
:101f9c00414798009e0078004e0090000080400061
:101fac008003b00021c0b300014878009e00780087
:101fbc004e0090006b0040004200dd0000804000ad
:101fcc001000be0061004000e08048009e017800d7
:101fdc004e0190006b0141004211dd000281410075
:101fec000089be004e409000e14f500028003a009e
:101ffc00d08080000000e00012003a001e80e80053
:10200c000f0b07001e007800b00890005080800075
:10201c00808f5000030036001e00780030089000be
:10202c00508088009e80e8001e00780030089000e8
:10203c00ea01b900e042210000004100b00a0700ab
:10204c00050037009e0078006c804000800078000e
:10205c0040472100aa0a07001e007800b008900033
:10206c000080800030089000808f500008003600ff
:10207c005e0090000000e000030032005e00900063
:10208c0011002000010878001000200080808800da
:10209c001e0090006a0a07000080fa00000006008b
:1020ac000800fa0020079800310798002e009000d5
:1020bc000000e00002003a000080800001003700c0
:1020cc002e00900010079800330a07009e00900025
:1020dc003e0090008003b00000804000104078006b
:1020ec00e24f500009003a009e0090003e00900024
:1020fc00008040008003b0008040eb000148780075
:10210c0010002000000f7800020037000000eb00e8
:10211c00000f78002d0a07001e0078000080fa00de
:10212c00000006000e00fa003007980041079800e6
:10213c0052079800630798003e0090000000e000f2
:10214c0002003a0000808000010037003e00900041
:10215c00000f7800100a07009e0078004e009000d7
:10216c006b0040004200dd00008040001001be000a
:10217c0012079800230798009e0078004e009000ec
:10218c006b0040004200dd00008040001001be00ea
:10219c005e009000ee0090000080ea008180ea0072
:1021ac0002027800030178008001780001007800b9
:1021bc0003026200000061008000eb00c000dd0043
:1021cc00000020000001be006120b8000001710079
:1021dc00818171009e0078004e0090006b004000e1
:1021ec004200dd00008040000288be00f7090700b5
:1021fc001e009000ae0090000080fa000000060067
:10220c000800fa00200798003107980041808000f0
:10221c00010f7800008080000080e800880a070029
:10222c002e0090001e0040001007980000808000d7
:10223c009e009000110098001e0090009e0f500010
:10224c0005003100008080008080e8002080800044
:10225c00490a07000a003700008080008080e800ef
:10226c0010808000440a0700b08080009e0090001f
:10227c00808f5000020031009e009000b1808800d9
:10228c000080fa00000006000600fa001007980013
:10229c00210798009e009000010f7800be090700ee
:1022ac001e007800900078001e00780070099000e5
:1022bc001e007800001090008090b90080804000d3
:1022cc001e007800210098001e0078008000eb00b2
:1022dc00610898001e007800900078001e007800bd
:1022ec00110098001e007800900078001e00780005
:1022fc00700890000001e9001e00780000109000aa
:10230c008090b900808040001e0078003100980059
:10231c001e00780080c0eb00216098001e00780041
:10232c0080c0eb00316098002e0090000000e000af
:10233c000d003a001e007800400090000000e00004
:10234c000f0032009e0078006880400026fc0700d9
:10235c000000e0000a0032006a29020000000000c0
:10236c0000000000060037009e00780068804000e6
:10237c00c30907009e00780072804000c009070066
:10238c0092090700100020000080fa0000000600ef
:10239c000c00fa003007980041079800224f980073
:1023ac00be0090004e0090008088b900000f7800ad
:1023bc00410220001e804000030c0700100798000b
:1023cc001e0090000000e0000b0032009e00900008
:1023dc00210798002e0090004002b00020079800c2
:1023ec001e029000ae4990002e019000ce0090008d
:1023fc003e009000030007001e0090000080fa00d1
:10240c00000006000a00fa00000f7800110798007f
:10241c002207980063479800440798001e0090001c
:10242c000000e00004003a00ce0090004e00900046
:10243c000108780003003700ae0090004e009000b9
:10244c00010878004e0090009e00780071089800fa
:10245c004e0090009e00900001109800110020008a
:10246c004e00900088ff07000080fa000000060074
:10247c001200fa0050079800610798007207980044
:10248c00030f98000000eb00000f7800de009000b6
:10249c001107980001003700000000003e090700fa
:1024ac001e009000e00890001e0090007008900044
:1024bc00808f5000030039000e089000e20f50008e
:1024cc001b003a000e099000ee0090001e009000d8
:1024dc0091020700200798001e0090001008900041
:1024ec000000e000090032001e0090007200400065
:1024fc00bdfb07000000e0000a0032006a29020060
:10250c000000000000000000060037002e009000c4
:10251c000000e000030032006a2902000000000005
:10252c000000000029090700100020003d003700c2
:10253c007e0090000000e00003003a002309070031
:10254c000000eb00370037001e0078000000e000b0
:10255c0004003a00660047000cfc07001000200045
:10256c00000f78001909070059fa07000a0907003b
:10257c001e00900020609000e14f400003003a00e4
:10258c001e0090008040eb00216098001e0090001f
:10259c0030609000e14f400003003a001e009000b4
:1025ac008040eb003160980008090700ee004700fe
:1025bc0066004700fffb07000000e00015003a0032
:1025cc001e009000210307000000e0000d00320007
:1025dc00fe0090001e0090006800400063fb0700a6
:1025ec001e009000c10207003ffa07000000e00047
:1025fc00a9ff3a006a290200000000000000000058
:10260c00a6ff37001e009000b802070036fa07003c
:10261c00a2ff37001e009000b402070032fa070038
:10262c000000eb000080fa00000006001200fa0027
:10263c00500798006107980072079800030f9800e4
:10264c00de00900011079800ee08070020079800a4
:10265c001e009000e00890001e0090007008900092
:10266c00808f5000030039000e089000e20f5000dc
:10267c0025003a001e009000b06090006147980061
:10268c001e009000e0089000410798000e09900091
:10269c00ee0090001e0090001f0207006e4090009c
:1026ac00e14f400010003a001e009000100890000e
:1026bc000000e000110032001e009000720040008b
:1026cc0049fb07000000e0000c0032007e00900087
:1026dc000000e000090032007e0090001100200094
:1026ec0001087800050037006e4090000040e800bb
:1026fc00804078001e00900031609800100020008f
:10270c00000f7800020037000000eb00000f78008b
:10271c002e009000ca0807001e0078000080fa0006
:10272c00000006000e00fa005007980061079800a0
:10273c00de00900011079800b208070020079800ef
:10274c001e009000e0089000310798001e009000d9
:10275c00f00890003e009000808f50002200360060
:10276c001e009000b0609000014f98003e00900059
:10277c008000e8001e009000610898000e48900050
:10278c00e14f400010003a001e009000100890002d
:10279c000000e000110032001e00900072004000aa
:1027ac0011fb07000000e0000c0032006e009000ee
:1027bc000000e000090032006e00900011002000c3
:1027cc0001087800050037000e4890000040e80032
:1027dc00804078001e0090003160980010002000ae
:1027ec00000f7800020037000000eb00000f7800ab
:1027fc002e009000920807001e0078000080fa005e
:10280c00000006001000fa005007980061079800bd
:10281c00720798000000eb00000f7800de009000bb
:10282c00110798000300370000000000010037007a
:10283c0000000000580807001e009000e0089000ff
:10284c00210798002e0090000000e00016003200d6
:10285c00ee0090001e009000020207002e00900077
:10286c008000e9001e009000610898001e00900096
:10287c00400090000000e000080032001e009000b4
:10288c0068004000d8fa07000000e00003003200a6
:10289c006a29020000000000000000004b0807003d
:1028ac0010002000410037007e0090000000e00086
:1028bc0003003a00450807000000eb003b0037001e
:1028cc001e0078000000e00004003a00660047009b
:1028dc002efb070010002000000f78003b080700bb
:1028ec007bf907002c0807001e0090002060900068
:1028fc00e14f400003003a001e0090008040eb00c6
:10290c00216098001e00900030609000e14f400064
:10291c0003003a001e0090008040eb0031609800ec
:10292c002a080700ee0047006600470021fb07005d
:10293c000000e00015003a001e0090002302070082
:10294c000000e0000d003200fe0090001e00900020
:10295c007200400085fa07001e009000e30107009a
:10296c0061f907000000e000afff3a006a2902009d
:10297c000000000000000000aeff37001e009000b9
:10298c00da01070058f90700aaff37001e00900073
:10299c00d601070054f907001e0090000b02070037
:1029ac000000e000a2ff32000000eb000080fa0003
:1029bc00000006000e00fa0050079800610798000e
:1029cc000000eb00000f7800de009000110798006b
:1029dc000300370000000000010037000000000079
:1029ec00ed0707001e009000e008900021079800fa
:1029fc002e0090000000e000130032002e0090002a
:102a0c008000e9001e009000610898001e009000f4
:102a1c00400090000000e000080032001e00900012
:102a2c006800400070fa07000000e000030032006c
:102a3c006a2902000000000000000000e307070004
:102a4c0010002000410037006e0090000000e000f4
:102a5c0003003a00dd0707000000eb003b003700e5
:102a6c001e0078000000e00004003a0066004700f9
:102a7c00c6fa070010002000000f7800d3070700eb
:102a8c0013f90700c40707001e0090002060900097
:102a9c00e14f400003003a001e0090008040eb0024
:102aac00216098001e00900030609000e14f4000c3
:102abc0003003a001e0090008040eb00316098004b
:102acc00c2070700ec00470066004700b9fa070090
:102adc000000e00015003a001e009000bb0107004a
:102aec000000e0000d003200ee0090001e0090008f
:102afc00720040001dfa07001e0090007b010700c9
:102b0c00f9f807000000e000b2ff3a006a29020061
:102b1c000000000000000000b1ff37001e00900014
:102b2c0072010700f0f80700adff37001e0090009f
:102b3c006e010700ecf807001e009000a3010700cf
:102b4c000000e000a5ff32000000eb000080fa005e
:102b5c00000006001200fa00600798007107980048
:102b6c00020f98000000eb00000f7800ee009000c0
:102b7c001107980003003700000000000100370027
:102b8c0000000000840707001e009000e008900081
:102b9c00210798002e0090000000e0001800320081
:102bac001e009000b000900031079800fe009000cd
:102bbc001e0090002b0107001e009000be0090002c
:102bcc00310098001e009000100890000000e000fa
:102bdc00080032001e0090007200400002fa07004c
:102bec000000e000030032006a290200000000002f
:102bfc00000000007507070010002000410037009e
:102c0c000e0890000000e00003003a006f07070078
:102c1c000000eb003b0037001e0078000000e000d5
:102c2c0004003a006800470058fa07001000200022
:102c3c00000f780065070700a5f807005607070086
:102c4c001e00900020609000e14f400003003a000d
:102c5c001e0090008040eb00216098001e00900048
:102c6c0030609000e14f400003003a001e009000dd
:102c7c008040eb003160980054070700f0004700db
:102c8c00680047004bfa07000000e00015003a000e
:102c9c001e0090004d0107000000e0000d00320006
:102cac008e0890001e00900072004000aff90700e3
:102cbc001e0090000d0107008bf807000000e000db
:102ccc00adff3a006a29020000000000000000007d
:102cdc00acff37001e0090000401070082f80700cb
:102cec00a8ff37001e009000000107007ef80700c7
:102cfc001e009000350107000000e000a0ff32002c
:102d0c000000eb000080fa00000006001000fa0042
:102d1c00500798006107980072079800de00900039
:102d2c001107980037070700200798001e00900035
:102d3c00e0089000310798003e0090000000e00091
:102d4c00250032001e009000a0609000014f9800fa
:102d5c00ee0090001e009000c20007003e009000a4
:102d6c008000e9001e009000610898000e48900059
:102d7c00e14f400010003a001e009000400090000f
:102d8c000000e000110032001e00900068004000be
:102d9c0095f907000000e0000c0032007e00900066
:102dac000000e000090032007e00900011002000bd
:102dbc0001087800050037000e4890000040e8003c
:102dcc00804078001e0090002160980010002000c8
:102ddc00000f7800020037000000eb00000f7800b5
:102dec002e009000160707001e0078000080fa00e5
:102dfc00000006000c00fa004007980051079800ec
:102e0c00ce00900011079800fe06070020079800de
:102e1c001e009000600890000000e0000c003200e2
:102e2c001e009000b000900031079800de0090006a
:102e3c001e0090008b0007001e009000be0090004a
:102e4c003100980010002000000f780002003700bd
:102e5c000000eb00000f78002e009000f806070031
:102e6c001e0078000080fa00000006000400fa0042
:102e7c0010079800c80607001e009000e00890009c
:102e8c00010f7800d10607001e0078000080fa00c0
:102e9c00000006000600fa0020079800ae00900023
:102eac00010f7800bc0607001e007800f0089000a7
:102ebc001e007800600890000080500010079800f9
:102ecc00c20607001e0090000080fa0000000600f9
:102edc000600fa0020079800ae009000010f780061
:102eec001e007800e0089000110798001e0090006a
:102efc000080fa00000006000400fa001007980099
:102f0c009e009000010f78001e0078005909070000
:102f1c000080fa00000006000a00fa002007980062
:102f2c0031079800420798000000eb00100798004a
:102f3c002e009000e0089000010f78002e00900009
:102f4c00001090000000e000400032004e009000a5
:102f5c000000e00019003a002e0090008010900054
:102f6c002e0090001000900001017800be0090002f
:102f7c0055f607002e009000900090002e00900057
:102f8c0000109000808040002e00900011009800ee
:102f9c002e009000900090002e00900020009000d9
:102fac00808f5000290039002e009000900078008e
:102fbc002e00900011009800240037002e00900085
:102fcc00801090002e0090003000900001017800dd
:102fdc00be0090003cf607002e009000b000900060
:102fec002e009000001090000000ea00808040004d
:102ffc002e009000310098002e009000b000900040
:10300c002e00900010007800808f500008003100d6
:10301c002e009000a00090002e0090000010900058
:10302c000000ea00808040002e00900031009800e3
:10303c004e009000e20f500004003a001e00780091
:10304c000000e000010032001e0fe9009e00e800c5
:10305c002e009000610898001e0090000080fa007d
:10306c00000006000400fa00000f78001107980019
:10307c001e007800001090000000e00019003200e3
:10308c001e007800b00090001e0078000010900028
:10309c00808040001e007800310098001e007800ef
:1030ac00b00090001e00780020009000808f50002f
:1030bc00040039001e007800900078001e00780093
:1030cc00310098001e007800801090001e007800df
:1030dc003000900001017800800078001e00900004
:1030ec00f9f507000080fa00000006000400fa0061
:1030fc0010079800280607001e009000b060900092
:10310c00014f78000b0037001e0090001008900053
:10311c000000e0000b0032001e0090007200400026
:10312c00b1f807000000e0000100320055f907007b
:10313c001e4fe9001e4078000004e000f2ff3c0046
:10314c0001003700000000001e00900080c0eb0062
:10315c00316098001d0607000f0607001e00900046
:10316c00a0609000114798000d0037001e009000e1
:10317c00400090000000e0000d0032001e009000a6
:10318c006800400098f807000000e00001003200e1
:10319c003cf907001e4090000040e90010479800e1
:1031ac001e4090000004e000f0ff3c0001003700de
:1031bc00000000001e00900080c0eb002160980011
:1031cc00020607000080fa00000006000400fa0066
:1031dc0010079800f00507001e0090006008900092
:1031ec000000e00003003a0010002000000f7800ff
:1031fc00020037000000eb00000f7800f305070019
:10320c001e0078000080fa00000006000600fa009c
:10321c0020079800ae009000110798001e00900047
:10322c00600890000000e00003003a00100020004d
:10323c00000f7800020037000000eb00000f780050
:10324c001e0078000080fa00000006000400fa005e
:10325c0010079800d00507001e009000e0089000b1
:10326c001e00900070089000808f500003003a0000
:10327c0010002000000f7800020037000000eb0067
:10328c00000f7800d10507001e0078000080fa00be
:10329c00000006000600fa0020079800ae0090001f
:1032ac00110798001e009000e00890001e0090008e
:1032bc0070089000808f500003003a00100020002e
:1032cc00000f7800020037000000eb00000f7800c0
:1032dc001e0078000080fa00000006000a00fa00c8
:1032ec002007980031079800420798004e00900084
:1032fc00e10f500003003a0010c0b300004f7800fb
:10330c00020037000040eb00004f78003e009000b8
:10331c000000e00002003a00100020003007980086
:10332c002e0090000000e800200798002e0090006e
:10333c007000400024080700100798001e00900041
:10334c000000e000070032001e009000f00040007a
:10335c001e0090001e427800be0190002e019000cd
:10336c00440307001e0090000080fa0000000600d5
:10337c000400fa00100798009e009000010f7800de
:10338c001e007800604890000080fb006200600026
:10339c000000e00003003a001e007800350807002a
:1033ac0004003700020120008000eb001e007800b2
:1033bc004cf507000080fa00000006000600fa0039
:1033cc0020079800ae009000110798000000eb0059
:1033dc00000f7800700507001e0090004000900060
:1033ec000000e00014003a001e0090005000900015
:1033fc000000e00010003a001e009000e049900030
:10340c001e009000300190001e009000a000900063
:10341c001e0090006000900003427800820178004a
:10342c0001017800800078001e0090001103070055
:10343c0010002000000f7800640507001e007800c3
:10344c000080fa00000006000800fa00200798002f
:10345c0031079800ae009000110798003e009000d4
:10346c000000e00002003a00100020003007980035
:10347c001e009000a00090003e009000808f500035
:10348c00060039001e009000be009000310098002c
:10349c0010002000000f7800020037000000eb0045
:1034ac00000f78001e0078000080fa000000060073
:1034bc000600fa0020079800ae0090001107980053
:1034cc001e009000a00090001e00900010007800dc
:1034dc00008f40001e009000100090001e0f100086
:1034ec001e0fe9001e009000200090009e0f50005f
:1034fc0003003e001e009000200090001e0f1000e4
:10350c001e0078000080fa00000006000600fa0099
:10351c0020079800ae009000010f78001e00780084
:10352c00c0020700100798001e0090000080fa00ef
:10353c00000006001600fa0070079800010f9800b2
:10354c00120f9800230f9800fe009000310798008e
:10355c000000eb00000f78009e0890001107980007
:10356c003e009000604890000080fb00610060000d
:10357c00004078000004e0000e0032001e009000b5
:10358c000080e800100798003e009000a00090001a
:10359c001e009000808f5000030031000000eb00f3
:1035ac00200798001000370010002000200798001a
:1035bc000d0037003e009000a00090001e0090000f
:1035cc00808f5000060031003e009000a00090005b
:1035dc001107980010002000200798000200370007
:1035ec0010002000200798002e0890000000e0003a
:1035fc00260032002e009000e10f500023003a000c
:10360c006a004700d5f70700e30407003e0090006e
:10361c00a7ff0700000f78001e0090009e007800a6
:10362c00808f5000170031008000eb000000eb0091
:10363c009bfa070047f80700be009000d0009800e6
:10364c00e20407002e089000000378008000eb00d5
:10365c006022b8006011b8000000eb0098f8070079
:10366c003e0090008000eb0051009800f4004700f1
:10367c006a004700cff707000000e000e2ff3200cd
:10368c0002003700d1040700000000001e00780083
:10369c000000e00003003a003e00900084ff0700a9
:1036ac00000f78001e0290009e0178001e09900009
:1036bc008e0890003e0090005700070040079800cd
:1036cc004e0090000000e000160032003e0090001a
:1036dc0054020700be009000b1009000810f500012
:1036ec0010003900faf507003e00900040009000f1
:1036fc000000e0000a0032003e0090004000900004
:10370c008002eb000002eb006011b8008000eb00bf
:10371c00e5f807003e0090008000eb0041009800a7
:10372c00f1f507004e0090000080fa000000060042
:10373c001200fa0050079800610798007207980071
:10374c00030f9800de00900011079800fe00900017
:10375c00010f78001e009000604890000080fb0074
:10376c0061006000004078000004e00001003200bd
:10377c001e8fe8001e0090004dff070020079800e8
:10378c001e027800ae0190007e019000ee009000c9
:10379c001e00900020000700300798003e009000ab
:1037ac000000e000190032001e0090001d0207000e
:1037bc009e009000b1009000810f50001300390062
:1037cc0090040700400798001e00900040009000f5
:1037dc000000e0000b0032001e0090004000900042
:1037ec000e0b90008002eb000002eb006011b800a1
:1037fc008000eb003af907001e0090008000eb00ff
:10380c00410098004e0090008d0407003e0090008f
:10381c000080fa00000006000e00fa002007980055
:10382c0031079800420798005307980064079800e6
:10383c005e0090000000e00003003a000000eb0086
:10384c00000f78001d0037002e009000604890009b
:10385c000080fb00610060000000e00009003a00fd
:10386c0010002000000f7800ce0090005e00900049
:10387c00810f5000010036000100780040079800cd
:10388c000e003700de0090006e009000808f50001c
:10389c000800390010002000000f78006800470075
:1038ac0022002000800078002e009000720107009a
:1038bc00020037000000eb00000f78001e007800bb
:1038cc000000e00008003200ce0090003e009000a6
:1038dc0001017800800078002e009000660107003e
:1038ec0010079800020037000000eb00100798004a
:1038fc001e0090000080fa00000006001000fa0084
:10390c0040079800510798006207980073079800c9
:10391c00ce009000310798000000eb00000f7800fb
:10392c003e009000604890000080fb006100600049
:10393c00004078000004e00003003200200020006a
:10394c0020079800020037000000eb0020079800c9
:10395c007e0090000000e000200032000e04070002
:10396c003e009000af010700100798009e009000e9
:10397c002e009000808f500006003e008000eb006f
:10398c000000eb00c6f9070072f70700be009000bc
:10399c00c00098000d0407009e0090002e009000bf
:1039ac00808f500010003e007e0390008000eb00e2
:1039bc006022b8006011b8000000eb00c0f70700ef
:1039cc003e0090008000eb00410098003e0090000b
:1039dc009401070010079800030037003e00900088
:1039ec0090010700100798009e0090002e00900098
:1039fc00808f50001a0036002e0290009e0190001d
:103a0c006e019000de0090003e0090007b000700ed
:103a1c00000f78001e0078000000e000100032005b
:103a2c002bf507003e009000500090000000e000d5
:103a3c000a0032003e009000500090008002eb0023
:103a4c000002eb006011b8008000eb0016f80700d4
:103a5c003e0090008000eb005100980022f507001a
:103a6c001e0078000080fa00000006000c00fa002e
:103a7c0050079800de009000110798001e0090007f
:103a8c00604890000080fb006100600000407800fe
:103a9c000004e000180032001e00900061010700d5
:103aac00200798002e009000e20f50000f00360007
:103abc001e009000900078003107980068004700c5
:103acc00ae01900022002000800078001e009000c3
:103adc001a010700ce009000010f78001e00900024
:103aec00be00900001087800050037000000eb00d4
:103afc00000f7800020037000000eb00000f780088
:103b0c001e0078000080fa00000006001200fa0087
:103b1c00500798006107980072079800030f9800ef
:103b2c00de009000210798000000eb00000f7800e9
:103b3c002e009000604890000080fb006100600047
:103b4c00004078000004e000030032002000200058
:103b5c0010079800020037000000eb0010079800d7
:103b6c002e0090002f01070030079800be00900037
:103b7c001e009000808f50001d0036001e02900029
:103b8c00be0190007e019000ee0090002e0090008f
:103b9c001a000700000f78001e0078000000e000fb
:103bac001300320097030700400798002e00900086
:103bbc00500090000000e0000b0032002e0090003e
:103bcc00500090000e0b90008002eb000002eb0006
:103bdc006011b8008000eb0041f807002e00900047
:103bec008000eb00510098004e00900094030700f9
:103bfc001e0078000080fa00000006001200fa0097
:103c0c0040079800510798006207980073079800c6
:103c1c00040f98000e0890000000e000190032001c
:103c2c004e00900090007800110798006600470045
:103c3c00fe0190000e099000800078004e0090006c
:103c4c00be000700be009000010f7800fe0090003f
:103c5c000e08900000805000700798006e009000d5
:103c6c009e007800808f5000080036004e009000b7
:103c7c009e009000010878000000eb00000f780017
:103c8c0002003700ee009000010f78005e009000fb
:103c9c00fe0190001e017800800078004e0090001c
:103cac00a6000700200798002e0090000080fa0064
:103cbc00000006000800fa0030079800be009000d3
:103ccc00110798001e0090009000780021079800c2
:103cdc001e009000900090002e009000808f5000ed
:103cec0003003a0010002000000f7800020037009b
:103cfc000000eb00000f78001e0078000080fa0036
:103d0c00000006000800fa0030079800be00900082
:103d1c00210798002e009000604890000080fb0066
:103d2c0061006000004078000004e00003003200f5
:103d3c002000200010079800020037000000eb0064
:103d4c00100798003e009000d9fd07009e009000df
:103d5c00810f500003003e0010002000000f78007f
:103d6c00020037000000eb00000f78001e00780006
:103d7c000080fa00000006000a00fa0030079800e4
:103d8c0041079800be009000110798001d03070022
:103d9c00200798001e009000400090000000e000fa
:103dac000e0032001e009000400090004e03900068
:103dbc008002eb000002eb006011b8008000eb0009
:103dcc00c7f707001e0090008000eb004100980030
:103ddc0010002000000f7800020037000000eb00fc
:103dec00000f78002e009000150307001e007800cd
:103dfc000080fa00000006000a00fa003007980064
:103e0c0041079800be00900011079800fd020700c2
:103e1c00200798001e009000500090000000e00069
:103e2c000e0032001e009000500090004e039000d7
:103e3c008002eb000002eb006011b8008000eb0088
:103e4c00a7f707001e0090008000eb0051009800bf
:103e5c0010002000000f7800020037000000eb007b
:103e6c00000f78002e009000f50207001e0078006d
:103e7c000080fa00000006000a00fa0020079800f3
:103e8c0031079800420798002e0090009000900097
:103e9c00010f78002e009000200090001e005000b2
:103eac00ce009000810f5000010036000100780018
:103ebc00100798002e009000600090001e0040003b
:103ecc001e019000be0090007ff20700ce00900013
:103edc001e009000808f500009003600ce0090002c
:103eec001e00900000815000be0090001e0090004b
:103efc00808040002e0090006000900072f207005d
:103f0c004e0090001e0f40002e00900020009000ec
:103f1c009e0f500003003e002e00900020009000e9
:103f2c001e0f10002e0090009e00780011009800cb
:103f3c004e0090000080fa00000006000e00fa000f
:103f4c0030079800410798005207980063079800c3
:103f5c00ee0090005e009000810f500001003600d2
:103f6c0001007800100798001e0090000000e0008f
:103f7c00290032003e009000100f78003e009000a7
:103f8c00200090001e0050009e009000810f5000f9
:103f9c000100360001007800200798003e009000d8
:103fac00600090001e0040002e0190008000780000
:103fbc004e00900044f207009e0090002e009000ee
:103fcc00808f5000090036009e0090002e0090005b
:103fdc00008150003e009000e0009000ce01900067
:103fec002e0090000080410037f207001e00900068
:103ffc001e0f40003e009000200090009e0f5000cd
:10400c0003003e003e009000200090001e0f1000a8
:10401c003e0090001e0878001e0090000080fa0000
:10402c00000006000400fa00100798001e00900023
:10403c00a00090001e00900010009000008f400027
:10404c001e009000100078001e0f10001e00900043
:10405c00200090009e0f500003003e001e009000b8
:10406c00200090001e0f10001e0078000080fa0047
:10407c00000006000a00fa00000f780011079800f3
:10408c002207980033079800044f98000201200083
:10409c008000eb001e00780012f207001e00780072
:1040ac009e009000610098001e007800ae00900009
:1040bc00210098001e007800be009000310098008e
:1040cc001e0078008e489000614898000080fa002d
:1040dc00000006000200fa00c0002000ba0407002d
:1040ec00000f78001e0078000000e0000500320090
:1040fc001e0078008000eb00010878001e80e800ac
:10410c005f0207001e0078000080fa000000060025
:10411c001200fa0050079800610798007207980087
:10412c00030f9800de009000110798000000eb00d0
:10413c002007980066f307001e009000900078009e
:10414c0031079800ee0090005e009000e000070040
:10415c00be0090006e009000810070007e00900008
:10416c00808060007e009000808f50000d003a002f
:10417c00be0090006e009000008f70001e0090003a
:10418c00900078007e0090000080ea008080600043
:10419c001e009000010878000000eb00000f980052
:1041ac00110037000e0890000000e0000a003200f9
:1041bc00fe00900000502000810070001e00900056
:1041cc000080e8000e09900075f407000000eb0079
:1041dc00000f7800040037001e009000100f7800cc
:1041ec0010002000200798003ff3070040079800bc
:1041fc000e0890000000e000200032004e009000fd
:10420c000000e00003003a006a29020000000000f0
:10421c000000000055f50700000f7800002020007a
:10422c001e0060000000e00012003a00da010700f6
:10423c001e009000100f78007e0090009e00600021
:10424c007e009000808f500007003a001e00900006
:10425c00900078007e0090000080ea008080600072
:10426c001e00900001087800d80107001000200003
:10427c0020079800f00f20001e0f60001e00780031
:10428c000080fa00000006001800fa007007980081
:10429c00010f9800120f9800230f9800340f98000c
:1042ac00fe009000210798000000eb00100798001a
:1042bc000000eb003007980005f307002e0090007b
:1042cc0090007800410798002e0990008e0890000d
:1042dc004e0090000a010700500798005e00900005
:1042ec000000e0000f003200ce009000010f7800bb
:1042fc000000eb00300f98001e0890000000e0005a
:10430c00250032002e009000900078000e089000de
:10431c000080ea00808060002e0090000108780088
:10432c001d0037003e0890000000e00005003a0038
:10433c00ce009000010f780010002000300798008c
:10434c00150037001e0890000000e000030032004a
:10435c001e0090000080a000100798002e0890000e
:10436c000000e000030032001e00900000a0a0003e
:10437c00100798008e0890001e00900081007000bd
:10438c002e0090000080e8003e09900004f4070025
:10439c000000eb00000f7800d3f2070060079800d4
:1043ac003e0890000000e000240032006e009000f7
:1043bc000000e00003003a006a290200000000003f
:1043cc0000000000e9f40700000f78000020200036
:1043dc001e0060000000e00016003a006e010700ad
:1043ec002e009000100f78002e0990008e0890007f
:1043fc001e007800c20007000000e0000a00320036
:10440c001e0890000000e000070032002e00900013
:10441c00900078000e0890000080ea008080600018
:10442c002e00900001087800100020003007980042
:10443c0066010700f00f20001e0f60001e007800c0
:10444c000080fa00000006000800fa00200798001f
:10445c0031079800ae009000010f78004e01070064
:10446c001e00780090007800110798001e0078005c
:10447c00900078003e0090000080ea008080600090
:10448c001e00780001087800500107001e00900003
:10449c000080fa00000006000800fa0030079800bf
:1044ac00be009000010f780056010700100798001d
:1044bc001e00780090007800210798001e009000e4
:1044cc005f0107002e0090000080fa00000006003b
:1044dc001600fa00100f9800210f98000000eb0056
:1044ec00100798009e089000310798000000eb0020
:1044fc00200798003e0090000080e80040079800dc
:10450c004e009000640040005007980070f20700c5
:10451c004e009000b0009000010f78003e0090001b
:10452c00900078002e089000810070003e009000f2
:10453c00010878003b0037001e00780090009000c6
:10454c00610798001e0078009000780071079800b1
:10455c000000eb0020079800fe00900000f02f00f8
:10456c0000806000000f9800fe009000f00f20000b
:10457c0000806000700798008e08900000402000ba
:10458c00008060000000e00009003a003e0090004e
:10459c00900078007e009000008060000000e00039
:1045ac000c00320010002000200798000900370092
:1045bc003e009000900078007e00900080806000ab
:1045cc007e009000808f500002003a001000200006
:1045dc00200798002e0090000000e0000f00320031
:1045ec008e08900000102000008060000000e000a9
:1045fc00040032009e0090007e00900001007000cc
:10460c00100798003e009000100078000090a00069
:10461c00800078001e007800a8f30700ee009000e0
:10462c00010f78005e0090009e007800808f500093
:10463c00c1ff3a003e009000900078001e009000f0
:10464c000080ea00808060003e0090000108780045
:10465c0025f207003e009000100078000080fa0060
:10466c00000006000600fa0020079800ae0090003b
:10467c00010f78001e80e8001007980014f2070064
:10468c00040037001e009000300090000120200034
:10469c008af307001e009000100078000000e00074
:1046ac00f8ff3a001e007800720307000ef20700b4
:1046bc000080fa00000006000600fa00000f7800e7
:1046cc0012079800230798009e0090001e007800a7
:1046dc007fff07000080fa00000006000600fa00c9
:1046ec00000f780012079800230798009e00900096
:1046fc001e00780054ff07000080fa00000006003e
:10470c000800fa001007980021079800320798005b
:10471c000000eb00000f78003e0090000000e0006d
:10472c0008003a009e0090002e009000008060006f
:10473c000000e0000b00320010002000000f780099
:10474c00080037009e0090002e00900080806000d2
:10475c002e009000808f500002003a0010002000c4
:10476c00000f78001e0078000080fa0000000600a0
:10477c004000fa00501f9800611f9800721f9800ab
:10478c00e4004700624828001a000900b2187800bb
:10479c00ee189000110798005e1890001e01900012
:1047ac00020878005e1890000080e800501f980006
:1047bc005e1890008000eb00010878005e189000f5
:1047cc000080e800501f98005e1890008000eb00fd
:1047dc00010878005e1890000080e800501f9800d7
:1047ec00fe1890005e189000010878005e1890008a
:1047fc000080e800501f98000000eb00000f7800cc
:10480c000a0037001e0078000000400064004000e1
:10481c00ee0078005e189000010878005e18900099
:10482c000080e800501f98001e0fe8001e00780062
:10483c00fa0f5000f3ff3600210280005e18900042
:10484c00010878005e1890000080e800501f980066
:10485c00910180005e189000010878005e189000ad
:10486c000080e800501f9800a10180005e189000a5
:10487c00010878005e1890000080e800501f980036
:10488c005e1890008000eb00010878005e18900024
:10489c000080e800501f98005e1890000080fa001d
:1048ac00000006000000fa002400070000808000d1
:1048bc00900778004f007800508188003400f90090
:1048cc003200f9004400f9004000f9003e00f90004
:1048dc003c00f9003a00f9003800f9002c00f9000e
:1048ec002a00f9002800f9002600f9002400f9003c
:1048fc002200f9005400f9003600f9004f07780047
:10490c004f06be004f05be004f04be004f03be0055
:10491c004f02be004f01be004f00be004200f90026
:10492c0000000600100020000080fa0000000600c5
:10493c000000fa000080fa00000006000400fa00f3
:10494c00104e200001002000008fbe000021ef005f
:10495c000421ef001e00780040088800014280000e
:10496c00f0f82f00008060000040a000004288009a
:10497c000028a9002028a80001088000f0fc2f00c6
:10498c00008060000040a0000008880001e1a80041
:10499c000080fa00000006000000fa0011028000fe
:1049ac00f0f12f00008060000070a0001002880061
:1049bc000000000000000000508180000000e800b2
:1049cc00508188000080fa00000006000000fa0008
:1049dc00508180000000e9005081880050818000e7
:1049ec000000e00005003a0011028000f0f12f00f9
:1049fc000080600010028800000000000080fa00b7
:104a0c00000006000200fa001002800075800a0007
:104a1c00000000000080fb00000f780011028000f5
:104a2c00f0f12f00008060000070a00010028800e0
:104a3c00000000001e0078000080fa000000060054
:104a4c000200fa00000f78001e0078000040780089
:104a5c00674060000080fb00670060004500dd00df
:104a6c0012028000f1f12f00810061000100700042
:104a7c0010028800000000000080fa000000060010
:104a8c000200fa00000f78009e007800648040005d
:104a9c00800078001e007800110098001e0078003d
:104aac008080eb00210098009e007800648040001c
:104abc00800078001e007800310098009e0078007d
:104acc0064804000800078001e007800410098004f
:104adc001e0078008000eb00010878000080fa00ce
:104aec00000006000200fa00000f78001e0078009b
:104afc008000eb00410098000080fa0000000600e6
:104b0c000600fa0010079800210798001e0090007c
:104b1c0090009000010f78002e0090009e0078000d
:104b2c00110098001e007800a00090002e0090004c
:104b3c00210098001e00780020009000ae0090002c
:104b4c00110098001e007800ae0090002100980023
:104b5c002e0090009e009000410098001e009000d6
:104b6c00100078008000e8001e009000010878001a
:104b7c000080fa00000006000800fa0020079800e8
:104b8c00310798003e0090009000780011079800c3
:104b9c001e009000e10f400004003a002e0090002f
:104bac00c0009000010f78000d0037002e0090001f
:104bbc0064004000000f7800030037001e007800ee
:104bcc0090009000010f78001e00780010009000fb
:104bdc00900078001e009000808f5000f7ff360088
:104bec001e007800900090003e009000110098008c
:104bfc003e00900010009000be0090002100980034
:104c0c003e0090009e007800210098001e00780065
:104c1c00be009000110098003e009000ae00900085
:104c2c00410098002e009000100078008000e800f1
:104c3c002e009000010878000080fa0000000600a9
:104c4c000400fa00100798001e009000c0009000ad
:104c5c00010f78001e009000100090009e00900044
:104c6c00a1009000210098001e00900020009000f0
:104c7c009e00900091009000110098001e0078009a
:104c8c00900090001e009000808f500004003a00ad
:104c9c001e009000a00090001e00780011009800eb
:104cac001e0090008000eb00410098001e00780070
:104cbc00100078008000e9001e00780001087800e0
:104ccc001e007800100078000080fa00000006003a
:104cdc000000fa00007c80000080fa000000060052
:104cec000200fa00faff0700000f78001e0078009f
:104cfc00240007000004e00002003200000028003d
:104d0c00710007001e0078002a0007000004e00074
:104d1c0002003200000024006b0007001e00780027
:104d2c00320007000004e0000200320000202000e6
:104d3c00650007001e0078003a0007000004e00040
:104d4c0002003200000820005f0007001e007800ff
:104d5c00420007000004e0000200320000042000c2
:104d6c00590007001e0078004a0007000004e0000c
:104d7c000200320000012000530007000080fa00fe
:104d8c00000006000400fa00100798000040eb0039
:104d9c00004f78001e0090000000e00002003d0073
:104dac0010c0b300004f78001e4078000080fa005d
:104dbc00000006000400fa00100798000040eb0009
:104dcc00004f78009e0090000000240000806000de
:104ddc000000e0000200320010c0b300004f780069
:104dec001e4078000080fa00000006000400fa0063
:104dfc00100798000040eb00004f78009e009000d8
:104e0c0000202000008060000000e0000200320062
:104e1c0010c0b300004f78001e4078000080fa00ec
:104e2c00000006000400fa00100798000040eb0098
:104e3c00004f78009e009000000820000080600069
:104e4c000000e0000200320010c0b300004f7800f8
:104e5c001e4078000080fa00000006000400fa00f2
:104e6c00100798000040eb00004f78009e00900067
:104e7c0000042000008060000000e000020032000e
:104e8c0010c0b300004f78001e4078000080fa007c
:104e9c00000006000400fa00100798000040eb0028
:104eac00004f78001e009000700060000000e000d1
:104ebc000200320010c0b300004f78001e40780092
:104ecc000080fa00000006000200fa00000f7800d3
:104edc009e80ea00007c800000806000007c8800de
:104eec000080fa00000006000000fa00802fef009e
:104efc000080fa00000006000000fa00000a200002
:104f0c00804a88005229ef005429ef005629ef00ff
:104f1c005a29ef005c29ef006029ef006229ef00ad
:104f2c0000b42400204b8800c0042000304b8800c3
:104f3c006829ef006c29ef007029ef007229ef004f
:104f4c0051e9a80000c8a90000e8a90020c8a800e1
:104f5c0020e8a8000080fa00000006000000fa001b
:104f6c00e04921008040eb0001487800f049210025
:104f7c008040eb0001487800004a21008040eb00a3
:104f8c000148780051e9a8000080fa0000000600f2
:104f9c000000fa0051e9a9000080fa0000000600a8
:104fac000000fa000080fa00000006000400fa007d
:104fbc00008fbe001e007800204b88001e00be0033
:104fcc004008de0000007800304b8800004a2100c9
:104fdc008040eb00014878000080fa0000000600d9
:104fec000400fa000080eb008080eb00008fbe0014
:104ffc00304b80008000eb00c001dd00020020007f
:10500c00204b80008000eb00001f710001977100a5
:10501c001e00be000080fa00000006000400fa002a
:10502c00008fbe001e007800004b88001e00be00e2
:10503c004008de0000007800104b8800004a210078
:10504c008040eb00014878000080fa000000060068
:10505c000400fa000080eb008080eb00008fbe00a3
:10506c00104b80008000eb00c001dd00020020002e
:10507c00004b80008000eb00001f71000197710055
:10508c001e00be000080fa00000006000200fa00bc
:10509c00004a2100104f78001e4078000004e00008
:1050ac0003003200004a21008040eb0001487800e8
:1050bc001e4078000080fa00000006000000fa0094
:1050cc0010002300307c8800800c2000407c88007d
:1050dc008c2fef0010042000507c8800101028004a
:1050ec00707c8800d0072000807c88001002200093
:1050fc00907c88009a2fef00b82fef00ba2fef00aa
:10510c00be2fef00002def00a02fef00a42fef001b
:10511c00a62fef00a82fef00aa2fef00ae2fef0065
:10512c00b02fef00b22fef001200200080072000fc
:10513c00a109200053f820008049780081497800ab
:10514c0082497800120020006004200071052000c4
:10515c0043f8200080497800814978008249780022
:10516c0000000000207c8000610060000000e00076
:10517c00fcff3a0000000000217c800000022000af
:10518c00008060000000e000fbff32000080fa00ad
:10519c00000006000000fa00707c8000ee800a001f
:1051ac00000000000080fb0000f0a7000000ea00f7
:1051bc000000ea004f00de00004078000080fa009a
:1051cc00000006000000fa00c3e8a8000000000080
:1051dc00000000000080fa00000006000200fa0047
:1051ec00000f78001071800055800a00000000004c
:1051fc000004a200614060000080fb0061006000c0
:10520c004500dd00117180000150a100010070000b
:10521c001071880011028000f0f12f0000806000f6
:10522c000070a000100288000000000000000000c8
:10523c0000502600d1dc210004010700110280007f
:10524c00f0f12f00008060001002880000000000c8
:10525c0000352c00e2ee0700e2ff37000000fa00f8
:10526c001071800066800a00000000000004a2009b
:10527c00614060000080fb00610060004600dd00c2
:10528c00117180000160a100010070001071880094
:10529c000080fa00000006000000fa00d3000700ae
:1052ac00c8ff0700c5012100440020008001eb006d
:1052bc0002082000c14b2800408f2200b4ed0700eb
:1052cc00dcee0700ffff37004200f800801f78007b
:1052dc000002200010028800811f7800829fbe000f
:1052ec00849fbe00869fbe00889fbe008a9fbe0022
:1052fc008c9fbe008e1f78003600f8005400f8001a
:10530c002200f8002400f8002600f8002800f8001d
:10531c002a00f8002c00f8003800f8003a00f800d9
:10532c003c00f8003e00f8004000f8004400f80093
:10533c003200f8003400f80050818000801f7800a3
:10534c00008080000f08780058090200000000005f
:10535c0000808000900778004f0078005081880012
:10536c003400f9003200f9004400f9004000f90063
:10537c003e00f9003c00f9003a00f9003800f90051
:10538c002c00f9002a00f9002800f9002600f90089
:10539c002400f9002200f9005400f9003600f9004d
:1053ac004f0778004f06be004f05be004f04be00ed
:1053bc004f03be004f02be004f01be004f00be00a7
:1053cc004200f900000006000400fa0010079800e3
:1053dc000000eb00000f78001e00900061006000e0
:1053ec00004078000004e000040032001e00900031
:1053fc000000a1000080e80010079800b4ee070040
:10540c00408180000000e00003003a00000321000e
:10541c000000a10040818800318180001e009000b6
:10542c0080804000d03f2000808f50000d003e0057
:10543c00318180001e00900080804000308180000f
:10544c00808f500007003600418180003081800041
:10545c00008f4000318180001e00900000804000d1
